:020000040800F2
:100000000872002095020008F14400080140000831
:10001000ED440008610B000865670008000000005F
:10002000000000000000000000000000D9450008AA
:10003000650D000800000000054500082D48000877
:10004000AF020008AF020008AF020008AF020008CC
:10005000AF020008AF020008AF020008AF020008BC
:10006000AF020008AF020008AF020008AF020008AC
:10007000AF020008AF020008AF020008AF0200089C
:10008000AF020008AF020008AD040008AF0200088C
:10009000AF020008AF020008AF020008AF0200087C
:1000A000AF020008FD480008AF020008AF020008D8
:1000B000AF020008AF020008AF020008AF0200085C
:1000C000AF020008AF020008AF020008AF0200084C
:1000D000AF020008AF020008AF020008AF0200083C
:1000E000AF020008AF020008AF020008AF0200082C
:1000F000AF020008AF020008AF020008AF0200081C
:10010000AF020008AF020008AF020008AF0200080B
:10011000AF020008AF020008AF020008AF020008FB
:10012000590D0008AF020008AF020008AF02000836
:10013000AF0200080000000000000000AF0200084D
:10014000AF020008AF020008AF020008F94400083F
:10015000AF020008AF020008AF020008AF020008BB
:10016000AF020008AF020008AF020008AF020008AB
:10017000AF020008AF02000800000000000000000D
:10018000AF020008AF02000800F002F800F072F8B9
:1001900014A696E8000CB244B344DA4501D100F04D
:1001A00069F8BAE80F000FA696E83000A5EB040541
:1001B00004EB0607AAEB0704A7F101074FEA1515A0
:1001C0004FEA3414A4F10104AC4201D300F052F818
:1001D00013F0010F18BFFB1A43F0010300F001F800
:1001E000DBE71847F47B0000147C00000A444FF062
:1001F000000C10F8013B13F0070408BF10F8014B86
:100200001D1108BF10F8015B641E05D010F8016BCA
:10021000641E01F8016BF9D113F0080F1EBF10F82E
:10022000014BAD1C0C1B09D16D1E58BF01F801CB51
:10023000FAD505E014F8016B01F8016B6D1EF9D5D4
:100240009142D6D37047000070470000002300247D
:1002500000250026103A28BF78C1FBD8520728BFD6
:1002600030C148BF0B6070471FB507F088F91FBD4C
:1002700010B510BD00F0E4F81146FFF7F5FF06F0E9
:10028000DDFC00F002F903B4FFF7F2FF03BC00F05D
:1002900005F900000948804709480047FEE7FEE7E6
:1002A000FEE7FEE7FEE7FEE7FEE7FEE7FEE7FEE726
:1002B00004480549054A064B70470000E948000814
:1002C00089010008084D002008720020085D002008
:1002D000085D002053EA020C00F069802DE9F04B24
:1002E0004FF00006002B1FBFB3FA83F503FA05F4A5
:1002F00024FA05F65E4012BF1643B2FA82F502FAFE
:1003000005F4C5F120051EBF22FA05FC44EA0C04E1
:10031000203556EA044C4FEA144418BF641C4FF0D1
:1003200000084FF00009904271EB030C39D300290B
:1003300019BFB1FA81F701FA07F6B0FA80F700FAAF
:1003400007F6C7F120071EBF20FA07FC46EA0C0695
:100350002037B6FBF4FCA7EB0507103F07F01F0B97
:10036000CBF120062CFA06F60CFA0BFB44BFB34681
:100370000026202FA4BF5E464FF0000B5BEA060C60
:1003800008BF4FF0010B19EB0B0948EB0608ABFB5C
:10039000027C06FB02CC0BFB03CCC01B71EB0C01F7
:1003A000C1E70B46024641464846BDE8F08B13B50F
:1003B000084318BF4FF0FF300146AFF30080BDE89F
:1003C0001C4070474FF0000200B513469446964615
:1003D000203922BFA0E80C50A0E80C50B1F1200158
:1003E000BFF4F7AF090728BFA0E80C5048BF0CC006
:1003F0005DF804EB890028BF40F8042B08BF704764
:1004000048BF20F8022B11F0804F18BF00F8012BD5
:10041000704770477047704710B500F009F80068E2
:1004200010BD10B5044600F003F8046010BD0000D4
:1004300000487047D02C002000487047D02C002086
:100440007546FFF7F9FFAE4605006946534620F0B2
:100450000700854618B020B5FFF72AFFBDE8204009
:100460004FF000064FF000074FF000084FF0000B70
:10047000AC46ACE8C009ACE8C009ACE8C009ACE8DF
:10048000C00921F007018D46704710B50446AFF34F
:1004900000802046BDE81040FFF7F5BE0149182056
:1004A000ABBEFEE7260002007047000044F2EC50AD
:1004B000C2F2000001F0C8B80089002818BF01206E
:1004C00070470000D1E90212C0E900127047000035
:1004D00001F0DABB002844F20C3044F20831C2F2D9
:1004E0000000C2F200010FD140F60002C4F2020285
:1004F000026001220A7044F2346244F6A433C2F26C
:100500000002C2F20003136080B50068097801227E
:10051000002918BF4FF4005101F096FC002080BD67
:100520002DE9F04F81B044F20C3744F208390C4603
:100530000546C2F20007C2F20009BAB1386899F85C
:1005400000100022002918BF4FF4005101F07CFC7C
:1005500044F23460C2F2000000684FF0FF362946D2
:1005600022460123009602F01DFF29E040F6000814
:10057000C4F2020844F2346A44F6A43B0126C2F2F3
:10058000000AC2F2000B40464FF400510022C7F8A7
:10059000008089F80060CAF800B001F055FCDAF874
:1005A00000004FF0FF3C294622460123CDF800C051
:1005B00002F0F8FEC7F8008089F80060CAF800B0C1
:1005C000386899F800100122002918BF4FF4005133
:1005D00001F03AFC002001B0BDE8F08F70B5044690
:1005E0004FF48070E0800A200D464FF6FF762180A0
:1005F000FFF76EFF2846FFF76DFF18B12089D0B1D5
:1006000030B270BD20460121012200F071F9204670
:100610000121012200F06CF90028F1D414D02089C6
:100620000028EDD11F20208140F2F400C2F200002A
:1006300000F51B600EE01E20208140F2F400C2F2A3
:10064000000000F5166005E040F2F4000026C2F25A
:1006500000002681E06030B270BD00002DE9F0415D
:100660000446C0794FF6FF7650B38846A179A9B108
:100670002546274635F8022B27F8046F38462946C9
:10068000FFF74EFF58B32089002851D10120208167
:1006900040F2F400C2F20000503048E080B1A0798E
:1006A000002840F0F0802089002840F012814C2082
:1006B000208140F2F400C2F2000000F5BE500CE0D0
:1006C0002089002840F0DF804B20208140F2F40098
:1006D000C2F2000041F270710844E060F9E028883D
:1006E00041041BD401466FF3DF3181EA510181EAF5
:1006F000910141F2111211404FF011325143C1F3F7
:100700000071B1EBD03F13D0208988B9032020813C
:1007100040F2F400C2F20000F03008E0208938B95D
:100720000220208140F2F400C2F20000A030E0601C
:10073000F01E2288A08038462946FFF7F1FE58B106
:1007400020894FF6FF76B8BB0120208140F2F400EB
:10075000C2F2000050302EE02E88700414D43046CF
:100760006FF3DF3080EA500080EA900041F211110F
:1007700008404FF011314843C0F30070B0EBD63F52
:100780000ED16FF39F3617E020894FF6FF7698B9A8
:100790000220208140F2F400C2F20000A0300AE002
:1007A00020894FF6FF7638B90320208140F2F4000B
:1007B000C2F20000F030E06030B2002863D4B8F13B
:1007C000000F60D04FF440402288A0803846294670
:1007D000FFF7A6FE60B1208900284FF6FF703BD1DD
:1007E0000120208140F2F400C2F20000503030E0DD
:1007F0002888410414D401466FF3DF3181EA5101A6
:1008000081EA910141F2111211404FF0113251432E
:10081000C1F30071B1EBD03F0FD16FF39F301BE0FC
:10082000208900284FF6FF7016D10220208140F267
:10083000F400C2F20000A0300BE0208900284FF63F
:10084000FF7009D10320208140F2F400C2F20000C1
:10085000F030E0604FF6FF7001B2002939D4A8B142
:1008600001051ED4410527D4810530D4C0050AD422
:10087000208970BB4A20208140F2F400C2F20000BF
:1008800000F5B95029E730B2BDE8F081208900BBFE
:100890004620208140F2F400C2F2000000F5AF5083
:1008A0001BE72089A8B94720208140F2F400C2F25A
:1008B000000041F230610FE7208950B948202081C3
:1008C00040F2F400C2F2000000F5B45005E72089C0
:1008D00020B14FF6FF7630B2BDE8F081492020818B
:1008E00040F2F400C2F2000041F2D061F4E60000F0
:1008F0002DE9F0419046044619294FF6FF7506D8B8
:1009000001200B228840C0F2C032104205D143F6CC
:10091000FC70081A042880F08D8009B2204601225C
:1009200000F0BAF8E81E274627F8040F2288A61C14
:1009300038463146FFF7F4FD58B120894FF6FF7570
:10094000B8BB0120208140F2F400C2F20000503018
:100950002EE03588680414D428466FF3DF3080EA2F
:10096000500080EA900041F2111108404FF011311F
:100970004843C0F30070B0EBD53F0ED16FF39F3505
:1009800017E020894FF6FF7598B90220208140F2C8
:10099000F400C2F20000A0300AE020894FF6FF7593
:1009A00038B90320208140F2F400C2F20000F03098
:1009B000E06028B200285BD4B8F1000F58D04FF4A3
:1009C00040402288A08038463146FFF7A9FD60B13B
:1009D000208900284FF6FF7046D10120208140F287
:1009E000F400C2F2000050303BE03088410414D4DF
:1009F00001466FF3DF3181EA510181EA910141F251
:100A0000111211404FF011325143C1F30071B1EB9B
:100A1000D03F1AD16FF39F3026E0208900284FF68F
:100A2000FF7021D10220208140F2F400C2F20000C8
:100A3000A03016E02089D8B90A20208140F2F400C5
:100A4000C2F2000000F548701FE0208900284FF630
:100A5000FF7009D10320208140F2F400C2F20000AF
:100A6000F030E0604FF6FF7001B200290ED410B1F3
:100A700028B2BDE8F081208940B90B20208140F2E6
:100A8000F400C2F2000000F55C70E0604FF6FF7504
:100A900028B2BDE8F0810000B0B56FF39F3162F37A
:100AA0008E31044681EA510080EA900041F2111231
:100AB00010404FF0113250434FF40042254602EAF5
:100AC000503035F8022B0144204620F8041F2946F7
:100AD000FFF726FD30B1208900284FF6FF701AD0AD
:100AE00000B2B0BD288841041DD401466FF3DF3148
:100AF00081EA510181EA910141F2111211404FF056
:100B000011325143C1F30071B1EBD03F18D16FF3F3
:100B10009F3000B2B0BD0121218140F2F401C2F248
:100B20000001503118E0208900284FF6FF70D7D11E
:100B30000221218140F2F401C2F20001A0310BE058
:100B4000208900284FF6FF70CAD10321218140F28D
:100B5000F401C2F20001F03100B2E160B0BD00006A
:100B6000FEE70000002070470020704710B544F2F7
:100B70001034C2F2000443F65411C2F200012046C0
:100B8000002204F017F943F25411C2F2000120468A
:100B900004F002F9002010BD10B544F21034C2F286
:100BA00000040146204604F0F7F8204604F0CEF891
:100BB000002010BD0020704744F21032C2F2000243
:100BC000D2F8BC22D2F81432002B1CBF012070478F
:100BD00010B544F21034C2F200040A460146204621
:100BE00004F0E8F82046BDE8104004F061B90000C8
:100BF0002DE9F04F81B02DED108B88B0229FFF07BB
:100C0000074601D1002098E0B0EE40AA0BEE103A62
:100C10000CEE102A0DEE101A079705F0F5FDB0EE58
:100C2000408AB0EE4A0A05F09FFDB0EE409AB0EE61
:100C30004A0A05F0E9FD44F6C440C2F2000080ED26
:100C4000000AB0EE4A0A05F08FFD44F25810C2F2D5
:100C5000000080ED000A18EE100A06F01FFC0446A2
:100C600019EE100A884606F019FC9FED370BCDE906
:100C7000011057EC10AB52463B4606F023FA9FEDAD
:100C8000340B054659EC10BB04900E4603912046E8
:100C900041465A464B4606F015FA2A463346CDE9F8
:100CA000051006F053F906F01FF90AEE100A204667
:100CB000414652463B4606F005FA04460F46DDE93A
:100CC00001105A464B4606F0FDF922463B460546C2
:100CD0000E4606F0F5FA06F007F90EEE100ADDE909
:100CE0000310DDE9053206F0EBFA06F0FDF80FEE31
:100CF000100A2846314622463B4606F027F906F000
:100D0000F3F800EE100A2CEE000A2DEE091A31EE6F
:100D1000000A2BEE0E1A30EE010A2CEE0F1A2DEE01
:100D2000082A079F31EE421A2BEE0A2A31EE421AA8
:100D3000012087ED000A87ED011A387308B0BDEC79
:100D4000108B01B0BDE8F08F000000E07AB6EB3FF9
:100D5000000000000000E0BF44F23860C2F2000072
:100D600000F02CBE70470000EFF3108072B600BF99
:100D7000FEE7000090F83C20012A04BF02207047E3
:100D8000F0B5D1F800C001221FFA8CFE80F83C209B
:100D90004FEA4E0212FA8CF20368BCF10A0F32BF1E
:100DA00010331E3A0C3307241D68944025EA0404CE
:100DB0001C608C681D6804FA02F22A431A600368FA
:100DC00000269A6BCFF6F07622F440129A634D68B3
:100DD0000A698C699F6B06EB0256AA1A3E430332DE
:100DE0009E63D6B2B60056FA82F21F269F6B9640DB
:100DF00027EA06069E639E6B0EFA02F232439A635E
:100E00009A68012722F470229A609A68C0F20F074C
:100E1000BC4202D122F4401409E022439A609A684D
:100E200022F440129A60CA699F6847EA02049C60F3
:100E30000A7D4F7D5E68002F26F4806618BF06F598
:100E400080665E605F68002A27F4805718BF07F548
:100E50008057032D5F6008D0022D09D0012D14BFEB
:100E600003F1200203F1140204E003F11C0201E08B
:100E700003F11802176840F6FF76B7431760CF6892
:100E8000166842F20431C4F2010137431760BCF125
:100E9000120FA1F5417208BF934203D10F6847F4C6
:100EA00080070F602CF00107102F08BF934203D179
:100EB0000A6842F400020A60002180F83C10BDE894
:100EC000F0400846704700002DE9F04F8DB044F621
:100ED000FC30C2F20000016844F6D443C2F20003C1
:100EE000C068496A44F254121F68C2F200021160DD
:100EF0007A1CB1EB500F1A6080F0DE8044F6D841C6
:100F0000C2F20001086844F2EC540130C2F200045D
:100F100008602046012100F07DFA44F65046C2F2F6
:100F2000000630602046022100F074FA44F6604169
:100F3000C2F2000108602046032100F06BFA02466D
:100F4000099044F670413068C2F200010A6006F070
:100F5000A5F89FEDEB0B53EC107B3A4607930397F4
:100F600006F0B0F89FEDE80B55EC102B2B460592E0
:100F7000019506F0A7F89FEDE60B53EC106B324697
:100F80000493029605F0E2FF814644F64840C2F21F
:100F9000000000688A4606F081FA9FEDDF0B834669
:100FA00058EC102B0C464846514643460A9206F030
:100FB00089F802460B465846214606F081F905F0AD
:100FC00093FF089044F66040C2F20000006806F00B
:100FD00065F8DDF81CB03A465B4606F073F8DDF8BC
:100FE00014902B464A4606F06DF8DDF810A0324604
:100FF000534605F0ABFF044644F65840C2F20000E9
:1010000000680D4606F04AFA0A9A06460F46204640
:101010002946434606F056F802460B463046394606
:1010200006F04EF905F060FF0690099806F036F8D4
:10103000039A5B4606F046F8019B4A4606F042F8E2
:10104000029A534605F082FF044644F66840C2F215
:10105000000000680D4606F021FA0A9A06460F467F
:1010600020462946434606F02DF802460B463046F8
:10107000394606F025F905F037FF089A44F644434F
:10108000C2F200031A6044F6D842C2F2000212789B
:1010900044F66441069B44F65447C2F20001C2F292
:1010A000000712073B60086008BF05F09FFE0DB007
:1010B000BDE8F04F05F0F4BB44F6DC41C2F200019C
:1010C000086844F2EC540130C2F200040860204683
:1010D000012100F09FF944F64C45C2F2000528605A
:1010E0002046022100F096F944F65C41C2F200016C
:1010F00008602046032100F08DF902460A9044F66C
:101100006C412868C2F200010A6005F0C7FF9FED3C
:10111000B60B59EC10AB52464B4605F0D3FF9FED92
:10112000B40B5BEC104B22465B4605F0CBFF9FED0A
:10113000B20B55EC106B32462B4605F007FF9FEDC6
:10114000B00B57EC108B42463B4605F0BBFF05F059
:10115000CBFE44F65C41C2F2000144F64842096805
:10116000C2F200021060084605F098FF52464B4656
:1011700005F0A8FF22465B4605F0A4FF32462B4649
:1011800005F0E4FE42463B4605F09CFF05F0ACFE50
:1011900044F65841C2F2000108600A9805F07EFF4B
:1011A00052464B4605F08EFF22465B4605F08AFF0D
:1011B00032462B4605F0CAFE42463B4605F082FF0A
:1011C00005F092FE44F6684144F2F424C2F20001B4
:1011D000C2F20004086020460121FFF73FFA44F202
:1011E0000435C008C2F2000528802046FFF764F9E4
:1011F00068B144F2F421C2F200010BA8FFF762F9D2
:10120000BDF82C0044F20631C2F200010880B5F9A5
:10121000000042F6B84100EE100A47F2D050C0F686
:10122000000090ED001A44F6DC40C2F200000068B5
:10123000B8EEC00A21EE000AC2F20001000781EDFB
:10124000000A02D00DB0BDE8F08F42F6BC41C2F2F8
:10125000000191ED001ABFEE002AB4EE421AF1EE41
:1012600010FA00F08F8047F2CC53C0F6000393EDE4
:10127000003A30EE412A44F2F022C2F20002B4EE0B
:10128000432A82ED002AF1EE10FA33EE031AC4BFAE
:1012900032EE412A82ED002A92ED002AB1EE433A65
:1012A000B4EE432A44F6BC43F1EE10FABCBF31EE73
:1012B000021A82ED001AC2F2000393ED001AB5EE95
:1012C000401AF1EE10FA0BD044F69C43C2F2000330
:1012D00000271F7044F6CC43C2F200031F6025E0D4
:1012E00044F6CC43C2F200031F68642F18DC44F6B6
:1012F0009C46C2F200060025013735701F6015E0DC
:101300006666666666660A40000000000000303FC0
:10131000666666666666FABF000000000000394037
:1013200044F69C43C2F2000301271F7092ED001A9D
:1013300047F2C852C0F6000292ED002A9FED323A01
:1013400042F6C84221EE021AC2F2000221EE031A4E
:1013500092ED002A9FED2D3A44F6F84322EE032A3F
:101360009FED2B3AC2F2000383ED001A21EE031A1F
:1013700044F6F44331EE021AC2F2000383ED001A80
:1013800082ED001A002881ED000A7FF45BAF44F67D
:10139000FC40C2F20000016844F25C1044F6F442E2
:1013A00044F6904344F60057C2F20000C2F2000235
:1013B000C2F20003C2F2000712681B683F6880E8AF
:1013C0008E0042F6B441C2F200010978042202EB19
:1013D0008101FFF7F1FB44F6C841C2F20001087039
:1013E0000DB0BDE8F08F00BF6666666666660A40AF
:1013F000000000000000303F666666666666FABF61
:1014000000000000000039400000803DCCCCCC3E04
:101410009A99193F81B000220092006801396FF05B
:101420000402032902600BD8DFE801F00204060879
:10143000C06B04E0006C02E0406C00E0806C009047
:10144000009801B07047000081B00021009190F831
:101450003C10012902BF022001B07047012201683F
:1014600080F83C208A68D20718D18A684DF68363D9
:1014700042F001028A6040F21C02C2F200021268CD
:10148000C4F21B33A2FB03239A0C02EB420200BFFF
:101490000092009A12B1009A013AF9E78B68026C47
:1014A000DB0709D142F010010164416C41F00101F8
:1014B0004164002001B0704743F201039A4302F5F2
:1014C00080520264026C42F2080CD2055CBF00221A
:1014D0004264002280F83C206FF0040008604868F5
:1014E000C4F2010C40F080004860DCF8FC028A681D
:1014F0004B68C0060DD0ACF1080081424FF00000EF
:1015000005D112F4401108BF13F480610CD001B072
:10151000704703F4806002F440128018C9D18868D3
:1015200040F480008860C4E7DCF8000040F48000EC
:10153000CCF80000BDE70000B0B581B000220092F9
:1015400090F83C20012A01D1022157E0D1F800E0B7
:1015500001221FFA8EFC80F83C204FEA4C0212FA5E
:101560008EF30268BEF10A0F32BF10321E3B0C32FE
:10157000072415689C4025EA040414608C681568EB
:1015800004FA03F32B4313604A68062A07D802EBD8
:1015900082014A1F01681F2351F8344F0CE0016893
:1015A0000C2A02EB820203D851F8304F233A02E0B2
:1015B00051F82C4F413A1F23934024EA03030B6058
:1015C0000D680CFA02F22A4342F204330A60C4F2B4
:1015D00001030168BEF1120FA3F5417208BF9142E9
:1015E00003D11D6845F480051D602EF00105102D06
:1015F00008BF914205D0002180F83C10084601B098
:10160000B0BD1968BEF1100F41F400011960F2D1AC
:1016100040F21C01C2F2000109684DF68362C4F277
:101620001B32A1FB0212910C01EB8101490000BFAA
:10163000009100990029DED000990139F8E70000F7
:10164000704700007047000070B5044600680668E7
:101650004568B10717D515F0200114D0216CC906D3
:1016600003D4216C41F400712164816811F0405F62
:1016700002D1217E002968D02046FFF7E1FF2068D3
:101680006FF012010160700715D515F0800012D0BF
:10169000206CC00603D4206C40F400502064206805
:1016A000816811F4401F2FD02046FFF70DFC206801
:1016B0006FF00C010160F00718BF15F0400013D166
:1016C000B00610D515F0806008BF70BD2068616C51
:1016D0006FF0200541F00201616405602046FFF7CC
:1016E000B1FF2068056070BD20680068C007E7D0C2
:1016F000206C40F480302064204600F0E5F820683B
:101700006FF001010160DBE7816B11F4401F02D033
:1017100081684905C8D441684905C5D4816811F07C
:10172000405FC1D1217E0029BED1416821F08001F6
:101730004160206C20F480502064206CC005B3D43C
:10174000206C40F001002064AEE7C16A11F4700F14
:1017500003D0816849053FF58FAF416821F0200132
:101760004160206C20F480702064206CC0043FF540
:1017700083AF206C40F0010020647DE7002804BFA7
:101780000120704710B50446006C30B9204600F0C7
:101790009DF80020606484F83C00206CC0063AD4B8
:1017A000206C41F202118843023042F2043120647D
:1017B000C4F20101086820F4403008600A6894E827
:1017C00009101A43D4F810E00A604168012321F49B
:1017D000807141604168C0F6007341EA0E214160AA
:1017E000416821F040714160416841EA0C0141606B
:1017F000816821F400618160E16882681143816041
:10180000A16A8268994222F070628260826804D183
:1018100022F040510AE0012052E0114381608168CA
:1018200021F040518160E16A8268114381608168E2
:1018300021F0020181608168227E94F8203041EA23
:1018400042018160416883B141F4006141604168B7
:101850004EF2000221F460414160616ACFF6FF72EE
:10186000436802EB4131194301E021F4006141601A
:10187000C16A40F2000C21F47001C162E269616941
:10188000CFF6F07CC36A0CEB02521A43C262826844
:1018900022F40072826094F83020836843EA422286
:1018A0008260826822F480628260826842EA8121DA
:1018B000816000206064216C012262F301012164D7
:1018C000002184F83C1010BD704700002DE9F04164
:1018D00086B0044642F200070068C4F20107002601
:1018E000B8420596CDE903660296019602D006B08D
:1018F000BDE8F08143F630000096C4F20200416971
:1019000001AD41F48071416141694FF0030801F478
:101910008071009100990096016841F00401016016
:10192000016801F00401009100990096016841F0FE
:10193000010101600068294600F001000090009854
:101940003F20019007F56840CDE9028600F0B0F92C
:101950006020CDE9010807F560402946039600F0B4
:10196000A7F944F2386546F21040C2F20005C4F20D
:1019700002004FF48061C5E9000605F110004FF444
:1019800080524FF480434FF480778EC02846C5E9DB
:101990000266C5E9086600F0D7F8002818BFFFF70F
:1019A000E3F9122000210022A563AC6300F0D6FA0F
:1019B000122000F0C3FA06B0BDE8F081F0B581B0A6
:1019C00004460020009040F21C00C2F200000268B1
:1019D000D4E9166048F2B51337680821C1F64E33D2
:1019E00081403942A2FB03250CD0226813685B07B3
:1019F00008D5136823F004031360B160616D41F0F2
:101A00000101616501218140394208D02268526993
:101A1000120604D5B160616D41F0020161650421D7
:101A20008140394208D022681268920704D5B1601B
:101A3000616D41F00401616510218140394215D08A
:101A400020680268120711D5B1600268016852036C
:101A500006D4C90506D4016821F00801016001E03F
:101A600008033ED4216C09B120468847E16D20204F
:101A700000FA01F23A4240D020680368DB063CD508
:101A8000B26094F835300268052B1AD122F01602A4
:101A90000260426922F080024261226C0AB9A26CA3
:101AA0001AB1026822F0080202603F208840B0604C
:101AB000012084F83500216D002084F83400D9BB62
:101AC0003FE00168520310D4C90512D4016821F027
:101AD00010010160012084F83500002084F83400F2
:101AE00007E0A16C0029BFD1C0E7080301D4616CF5
:101AF00000E0E16B09B120468847606D08B3606D76
:101B0000C00717D0052084F835002068A90A0268AC
:101B100022F00102026000BF009A01328A42009264
:101B200002D80268D207F7D1012084F835000020DE
:101B300084F83400E16C21B1204601B0BDE8F040EA
:101B4000084701B0F0BD00002DE9F041044600F067
:101B500081F9C4B10546022084F8350000202168CF
:101B600084F83400086820F00100086020680168EB
:101B7000C9070BD000F06EF9401B0528F6D90321E8
:101B8000202203207AE00120BDE8F081016848F2BC
:101B90003F02CFF21002D4E9013501EA020ED4E986
:101BA000032143EA0E032B43D4E9056C1A43D4E91D
:101BB00007781143314341EA0702616A42EA0802A9
:101BC000042942EA0C0303D1D4E90B273A43134317
:101BD00003604269042922F0070241EA02012DD183
:101BE000D4E90A5341EA050143B3BCF5005F08D0CC
:101BF000BCF1000F12D1022D16D0012D07D09DB1DE
:101C000019E0032D17D8DFE805F00B0F0B02A3F145
:101C1000C072B2FA82F252094AB90FE0032D02D221
:101C2000012222B90AE006D1C3F3006232B10121D8
:101C30004022012022E00022002AF8D100F0F80220
:101C40004AF6AB23103ACAF6AA23A2FB033747F29F
:101C5000C05341613909C0F60003595C40F2FF33BB
:101C600098435F2A4FF03F0288BF0430C4E9160151
:101C700002FA01F18160002201210020626584F8EE
:101C80003510BDE8F0810000B0B5044600F0E2F880
:101C9000054642F6C040C2F200000078611C18BF41
:101CA000044400BF00F0D6F8401BA042FAD3B0BDF8
:101CB0002DE9F04F82B000F13E4707F1FF7786052E
:101CC00046EA972741F60046C4F202060822B042CF
:101CD00008BF0722072F38BF3A46002400274FF0DD
:101CE0000009009209E000BF09F101090237B9F1CA
:101CF000100F04F1040400F0A4800D68012202FA20
:101D000009FC15EA0C08EFD0D1F804B00BF0030A77
:101D1000AAF10105012D12D80322856802FA07FEF7
:101D2000CA6825EA0E05BA402A4382604268CBF3AE
:101D3000001522EA0C0205FA09F52A434260BAF1BD
:101D4000030F1CD0C26803238E6803FA07F5AA4369
:101D5000BE403243BAF1020FC26010D16FF00302ED
:101D600002EA59020244D2F820C004F01C050F23F5
:101D70000E69AB402CEA0303AE40334313620268A2
:101D800003234E68BB409A4306F00303BB401A434B
:101D900016F4403F0260A7D0002243F644030192AC
:101DA000C4F202031A6843F6004E42F480421A60FD
:101DB0001A68C4F2010E02F480420192019A29F0DD
:101DC00003024FF6084C7244CFF6FF7C52F80C30F9
:101DD00004F00C060F25B540AB43009D05FA06F64E
:101DE000334342F80C30DEF808204B6842EA08061C
:101DF00043F60C4CDD0258BF22EA0806CEF8086014
:101E0000C4F2010CDCF800209D0242EA080658BF2B
:101E100022EA0806CCF80060DEF804209D0342EABE
:101E2000080658BF22EA0806CEF80460DEF8002053
:101E3000DB0342EA080658BF22EA0806CEF8006033
:101E400052E702B0BDE8F08F002A08BF09048161A3
:101E50007047000044F6F040C2F20000006870478E
:101E600042F6C04044F6F041C2F20000C2F2000166
:101E700000780A68104408607047000080B543F697
:101E80000040C4F20200016841F400710160016881
:101E900041F480610160016841F4807101600320B8
:101EA00000F088F80F2000F005F800F02BF8002073
:101EB00080BD0000B0B542F6C042C2F2000240F25E
:101EC0001C011278C2F200014FF47A730968B3FB67
:101ED000F2F20446B1FBF2F1084601F075FB0F2C5B
:101EE0004FF001050CD858B94FF0FF3021460022C1
:101EF000002500F033F842F6C440C2F2000004604E
:101F00002846B0BD82B0002043F640010190C4F2E3
:101F100002014A6842F480424A604A6802F4804200
:101F20000192019A0090086840F0805008600868AB
:101F300000F080500090009802B07047002848BF21
:101F4000704700F01F01012202FA01F14EF2001267
:101F50004009CEF2000242F82010704710B54EF64C
:101F60000C5CCEF2000CDCF80030C3F3022E8EF0D5
:101F70000704042C28BF0424BEF103034FF0FF3EE6
:101F80000EFA04F438BF0023A14399400EFA03F37C
:101F90009A43114300F1604200F00F03090102F57A
:101FA0006442043B6344002848BF03F10C021170F3
:101FB00010BD00004EF60C51CEF200010A684FF63B
:101FC000FF031A4060F30A2242F0806040F0FD7087
:101FD0000860704770470000026800205162704737
:101FE000B0B5D0F800E0DEF82400D1B1DEF828303A
:101FF000B1F1010C00EB13430BD05FFA8CF10EF53D
:102000008070002450F8045F01348C4203EB1543C8
:10201000F8D343EA02400EEB8C01C1F80401002022
:10202000B0BD40EA0240CEF828000020B0BD00005C
:10203000D0F8080503F08CB901EBC102D0F80835DF
:1020400000EB8200C26C184603F0EAB801EBC10253
:10205000D0F8083500EB8200D0F88C22184603F047
:1020600039B90000D0F8080503F074B910B504467A
:1020700048B2B0F1FF3F01F00F0000EBC00104EBEC
:10208000810205DD02F51F71002382F87D3204E034
:10209000012302F13C0182F83D3094F8BC24087021
:1020A000012A04BF022010BD2068012284F8BC244C
:1020B00003F062FE002084F8BC0410BDB0B5426895
:1020C000044601F00F0082423CBF0120B0BD49B27E
:1020D000B1F1FF3F09DD00EBC00104EB810202F525
:1020E0001F71002382F87D3208E000EBC00104EB91
:1020F0008102012302F13C0182F83D3094F8BC24B6
:102100000025012A8D70087004BF0220B0BD206830
:10211000012284F8BC2404F039F8284684F8BC5421
:10212000B0BD000001F00F0101EBC10100EB810027
:10213000D0F89C027047000070B5064648B2B0F176
:10214000FF3F01F00F0000EBC00107DD06EB81044B
:1021500004F51F71002584F87D5206E006EB810C22
:1021600001240CF13C018CF83D404D780870002DA5
:10217000CA600B7118BF0881022B04BF0020487190
:1021800096F8BC04012804BF022070BD306801220B
:1021900086F8BC2403F020FD002086F8BC0470BD46
:1021A00080B501F00F0C0CEBCC0100EB810ECEF8EA
:1021B00094320023CEF89C328EF87D320369CEF83B
:1021C0008C22012B8EF87CC208BFCEF890220068CA
:1021D0000EF51F71DAB2BCF1000F03D004F01CF849
:1021E000002080BD03F026FF002080BDB0B504466E
:1021F000406801F00F05854284BF0120B0BD48B2A0
:10220000B0F1FF3F09DD01EBC10004EB800000F5F8
:102210001F71002280F87D2208E005EBC50004EB69
:102220008000012200F13C0180F83D2094F8BC04BC
:10223000012201288A700D7004BF0220B0BD206801
:1022400084F8BC2403F0CAFF2DB92068217C04F275
:10225000C44203F06DFF002084F8BC04B0BD000050
:1022600010B501F00F0C0CEBCC0100EB810E7146A8
:1022700001F83CCF8B6100230B62036901244C7091
:10228000012B0A6108BFCEF850200068DAB2BCF119
:10229000000F03D003F0C0FF002010BD03F0CAFE02
:1022A000002010BD2DE9F04F89B005688246284610
:1022B00004F016F910B109B0BDE8F08FDAF80000AB
:1022C00004F03CF90028F6D0D5F80808C0F30D2139
:1022D000DAF80000CAF8FC1404F030F9800705D5DC
:1022E000DAF80000416901F002014161DAF800000A
:1022F00005F5006604F022F9C00606953ED5DAF829
:102300000000816921F0100181612C6AC4F343400F
:10231000062804F00F0519D0022828D147F6F070DE
:1023200014EA000823D005EBC5000AEB8007D7F8B4
:102330008C124FEA18140698224604F003F9D7F8D5
:102340008C0200EB1810C7F88C0207E006980AF21E
:10235000C441082204F0F6F8C4F30A1405EBC500E2
:102360000AEB8000D0F89C122144C0F89C12DAF8E5
:102370000000816941F010018161069DDAF80000DA
:10238000039604F0DBF8000340F1F780DAF8000070
:1023900004F0B2F8002800F0F08006460AF2C440CB
:1023A0004FF4306800244FF0000B08901AE000BF93
:1023B00005EB080002218160B80642BF05EB08006A
:1023C00020218160B80442BF05EB08004FF40051A2
:1023D00081600BF1010B760808F1200804F1240458
:1023E00000F0CB80F007F4D0DAF800005FFA8BF948
:1023F000494604F09BF80746C0076ED005EB08007D
:1024000001218160DAF8000008EB000C036CDCF8B5
:102410000820DAF81050012D28D115073AD4950676
:1024200054D4069D12F0280F57D143F20B01C4F685
:1024300054718B4202D312F4004235D10AEB0402EC
:10244000D2F89832DCF810106FF3DF41A3EB0101F2
:10245000C2F89C12CCB9D2F89432002B00F08880DC
:10246000D2F88C020844C2F88C020EE043F20B054D
:10247000C4F65475FF35AB421BD1100428D4069D19
:10248000900644BF2020CCF8080050464946FFF78C
:10249000DDFD22E043F20B00C4F65470069D83423A
:1024A0001BD312F4004018D04FF40040CCF80800C1
:1024B00013E034B9DAF8941219B9089A002103F03C
:1024C00037FE50464946FFF7C1FD05E0202001E0F8
:1024D0004FF40040CCF80800069D380728D505EBDE
:1024E000080008218160DAF8000043F20B02056C55
:1024F00040448168C4F65472954205D311F40041FA
:102500001CBF4FF400418160504600F0C9FB43F20C
:102510000B00C4F654708542069D09D3DAF810000A
:10252000012805D1DAF80000089A012103F000FE25
:10253000F80642BF05EB080010218160B8077FF55F
:102540003BAF6869000604D50399486840F4806091
:1025500048600AEB040090F87F1201297FF428AF4D
:10256000002180F87F125046494600F083FA1FE7A9
:10257000089A012103F0DCFD87E7DAF80000CDF8C6
:1025800020A003F0DBFFDDF80CB0400340F1D98060
:102590000898006803F0A8FF002800F0D280824667
:1025A000089805F5106600F2C440002701900296D5
:1025B00006E000BF5FEA5A0A07F1010700F0C18098
:1025C0005FEACA70F6D00898F9B20068079103F084
:1025D0009BFF0446C00726D007F00F00DBF834103D
:1025E000012202FA00F021EA0000CBF8340006EBE9
:1025F00047108260089D286901280FD107EBC700AA
:1026000005EB8000D0E912121144C16437B9406D66
:1026100020B92868019A012103F08AFD079928460C
:10262000FFF70AFD069D200742BF06EB4710082171
:102630008160E00642BF06EB471010218160600612
:1026400042BF06EB471040218160A00716D52846FF
:10265000394603F00FFF089907EBC70001EB800034
:1026600010F83F1F012905D100210170DDE9071095
:1026700000F0FCF906EB471002218160200699D595
:10268000089907EBC70001EB8000814659F8541FF9
:10269000C84658F8082F91428CD3089B83461E6881
:1026A0005BF8483F891A994238BF0B46059606EBFE
:1026B0004711D1F81829033392B2B2EB930F29D303
:1026C00001F5106100F14C05049100BFD8F800003D
:1026D000D9F8001081421DD9DBF80040089A081A89
:1026E000A0422968167C38BF04460598079AA3B211
:1026F000009604F019F82868D8F8001020442860E3
:102700000819C8F800000498E11C806980B2B0EB99
:10271000910FDBD2D9F80000D8F80010069DDDE952
:10272000026B88423FF646AF059B07F00F00D3F8D7
:102730003418012202FA00F021EA0000C3F834083C
:1027400038E7DDF82080D8F8000003F0F7FEB0F19C
:10275000FF3F1ADCDBF8040020F00100CBF8040096
:1027600098F8F404012807D1002088F8F4044046C2
:102770000021FFF72FFC02E0404600F075FAD8F880
:102780000000416901F000414161D8F8000003F008
:10279000D5FE00050CD5DBF80800C00702D0404686
:1027A00000F0A6FAD8F80000416901F40061416127
:1027B000D8F8000003F0C2FEC0045BD5DBF80400CB
:1027C000102120F00100CBF80400D8F8000003F03D
:1027D00051FED8F80400D0B105F510614FF67F32F4
:1027E0008A600B68013823F400130B60C1F80822DB
:1027F000D1F8003223F40013C1F80032D1F80032CE
:1028000043F00063C1F8003201F12001E8D1DBF8A8
:102810001C0040F00110CBF81C00D8F8300040B18B
:10282000DBF8840040F00B00CBF884000BF144008F
:1028300008E0DBF8140042F22B010843CBF8140047
:102840000BF11000016808F2C44241F00B01016075
:10285000DBF8000020F4FE60CBF80000D8F80000A0
:1028600098F8101003F064FCD8F80000416901F4F6
:1028700080514161D8F8000003F060FE80041CD54F
:10288000D8F8000003F0E8F9D8F8000003F01AFEC9
:10289000D8F80040C8F80C0000F0FCFA98F80C20BA
:1028A0000146204603F0B8FE404600F0C7F9D8F8CC
:1028B0000000416901F400514161D8F8000003F0C3
:1028C0003DFE000708D5404600F0D2F9D8F80000D8
:1028D000416901F008014161D8F8000003F02EFEC3
:1028E000000629D50699886920F080008861D8F80B
:1028F0000400022820D3012440F2A32507E000BFF2
:10290000D8F804000134844205F1240514D218F8E3
:1029100005000128F4D104F00F0000EBC00008EB23
:1029200080022006D8F8000002F13C0158BF02F5F1
:102930001F7103F051FDE3E7D8F8000003F0FEFD3E
:10294000C0022FD5D8F80400022825D3069808F134
:10295000640500F512640126012706E0D8F804009A
:102960000137874204F1200416D22846216815F861
:10297000242B012AF2D1B1F1FF3FEFDC00F8016C0A
:1029800007F00F0000EBC00008EB8001D8F8000052
:102990003C3103F021FDE1E7D8F80000416901F482
:1029A00080114161D8F8000003F0C8FD800236D5DF
:1029B000D8F8041002292CD30698013900F53260AA
:1029C00008F52972012303E0013900F1200020D02D
:1029D0001746066812F8245B012DF5D1B6F1FF3FCA
:1029E000F2DCD8F8FC5406F4803605F00105AE425E
:1029F000EAD1069E07F8013CB76947F08007B76146
:102A000077693F06E0D4DBF8040040F40070CBF8AF
:102A10000400D8F80000416901F400114161D8F8C0
:102A2000000003F08BFD400008D54046FFF700FB97
:102A3000D8F80000416901F080414161D8F80000F8
:102A400003F07CFD40077FF536ACD8F80000446801
:102A5000600702D54046FFF705FBD8F80000416843
:102A60002143416009B0BDE8F08F0000D0F80805AF
:102A700002F0D2BCD0F8080502F0E4BC2DE9F04F1A
:102A80008BB0002800F086800446056890F8BD04ED
:102A900028B9002084F8BC04204600F08BF80320FD
:102AA00084F8BD04E86BC0055CBF0020206120688D
:102AB00003F0B8FA206804F11C0A0A90D4E90C501B
:102AC00004F1040E9AE8C0079EE80E58CDE90850BC
:102AD00003A880E8C0030A988DE80058CDF81CA030
:102AE00003F0CAF8002852D120680021002503F025
:102AF0004FFD616861B301200023002203EBC30393
:102B000004EB830787F83C20D3B20132A7F84430A6
:102B1000D3B2994287F83D0087F84050C7E9125573
:102B20007D65EBD800200023002200BF03EBC30328
:102B300004EB830787F87C220132D3B2994287F8ED
:102B40007D0287F88002C7E9A200C7F89402EDD899
:102B5000A06822680A90D4E90C5004F1140E04F124
:102B6000240AD4E903379EE840589AE80007CDE9E3
:102B7000085002A880E8005810460A9ACDE900766D
:102B8000CDE90589CDF81CA003F05AF938B102202F
:102B900084F8BD04012528460BB0BDE8F08F002560
:102BA000012084F8385084F8BD04206803F038F917
:102BB000F1E70000B0B586B000680024B0F1A04F86
:102BC0000594CDE903440294019401D006B0B0BD50
:102BD00043F630050094C4F20205286801A940F0CC
:102BE00001002860286800F00100009000984FF470
:102BF000C05001900220CDE90204032004900A2075
:102C000005900020C4F20200FFF752F86868002126
:102C100040F08000686000946869002240F48040C1
:102C20006861686900F48040009000984320FFF7D5
:102C300095F94320FFF782F906B0B0BD10B5044600
:102C4000C06828B1022801D0FEF78EF8012100E00B
:102C50000021D4F8080502F07BFCD4F80805BDE893
:102C6000104002F02BBC0000D0F8080502F056BC62
:102C7000D0F8080502F05CBC10B5044690F8BC041E
:102C8000012804BF022010BD012084F8BC0484F890
:102C90003810206803F0AEFC002084F8BC0410BD9E
:102CA000D0F8082500F2C441104602F067BC0000CD
:102CB00010B5044690F8BC04012804BF022010BDE2
:102CC000A16A20680122012984F8BC2406D1A169E7
:102CD000012903D0816B41F48031816303F0C2FB91
:102CE000206803F08DF8002084F8BC0410BD0000BB
:102CF00010B50446D0F8080502F094FC2068D0F81E
:102D0000001E41F00101C0F8001E206A002808BF23
:102D100010BD4EF61050CEF20000016841F00601E1
:102D2000016010BD70470000002804BF01207047FB
:102D30002DE9F04143F60808C4F202080446D8F829
:102D4000F8030D4600F00700884207D288F8F853D0
:102D5000D8F8F80300F00700A84276D12068810770
:102D600017D5410705D5D8F8001041F4E051C8F84F
:102D70000010010705D5D8F8001041F46041C8F8EB
:102D80000010D8F80010A26821F0F0011143C8F833
:102D90000010C0073FD1D8F8F80300F00700A842A0
:102DA00007D988F8F853D8F8F80300F00700A842CC
:102DB0004BD12068410707D5D8F80010E26821F40C
:102DC000E0511143C8F80010000708D5D8F80000FA
:102DD000216920F4604040EAC100C8F8000000F01A
:102DE0005FF8D8F8001047F2A252C1F30311C0F601
:102DF0000002515C40F21C0220FA01F142F6C4408C
:102E0000C2F200000068C2F200021160FFF752F83F
:102E10000020BDE8F0816068811E022907D258F8C1
:102E2000081C89015CBF0120BDE8F08110E0012889
:102E300007D158F8081C89035CBF0120BDE8F08168
:102E400006E058F8081C890702D40120BDE8F0818B
:102E5000D8F8001021F003010843C8F80000FEF77D
:102E6000F9FF064641F28837D8F80000616800F0A3
:102E70000C00B0EB810F8ED0FEF7ECFF801BB84248
:102E8000F2D90320BDE8F0814C20C4F24720012193
:102E90000160704740F21C00C2F2000000687047F9
:102EA00010B543F60404C4F20204606800F00C019B
:102EB00042F200400829C0F2F40007D0042918BFEC
:102EC00010BD41F20020C0F27A0010BD216801F06F
:102ED0003F02216823684902C3F3881105D4A1FB8E
:102EE00000010023FDF7F6F906E041F20020C0F2F0
:102EF0007A004843B0FBF2F021680222C1F301419D
:102F000002EB4101B0FBF1F010BD000010B543F63B
:102F10000C04C4F202042068000658BF10BDFFF77D
:102F200001FF8020A07010BD002804BF0120704761
:102F30002DE9F04182B00446007843F60006C00750
:102F4000C4F2020647D0B06800F00C00042808D193
:102F5000306880033FD56068E8BB012002B0BDE85F
:102F6000F081B06800F00C00082802D170684002BF
:102F7000EED46568B5F5A02F0AD0B5F5803F0BD02B
:102F8000306820F480303060306820F4802006E023
:102F9000306840F480203060306840F48030306029
:102FA000FEF758FF002D054612D000BF30688003A1
:102FB00011D4FEF74FFF401B6428F7D926E100BF6C
:102FC000FEF748FF401B64284FF0030000F2E28048
:102FD00030688003F4D4207880071BD5B06810F0E7
:102FE0000C0F09D0B06800F00C00082840F0878072
:102FF0007068400200F183803068800703D5E06884
:10300000012840F09E803068216920F0F80040EAF5
:10301000C10030602078000735D42078400748D4BC
:10302000A56965B3B06800F00C00082840F09E80E8
:10303000012D00F086807068E16900F480028A4208
:1030400040F07F80216A00F03F028A4279D147F642
:10305000C071626A0140B1EB821F72D1A16A4FF662
:10306000FF73C903994300F44032A1F580318A42CD
:1030700067D1E16A00F07060B0EB016F61D10020B0
:1030800002B0BDE8F0816069002840F20000C4F29F
:1030900047205AD00121C0F8801EFEF7DBFE05460E
:1030A000706F8007B9D4FEF7D5FE401B0228F7D910
:1030B000ACE0306C5FEAC0080AD400200190306CAC
:1030C00040F080503064306C00F0805001900198E6
:1030D00047F20007C4F200073868C00524D43868F6
:1030E00040F480703860FEF7B5FE05463868C005CC
:1030F0001AD4FEF7AFFE401B0228F7D986E0E0683D
:10310000002857D00020C4F2472001210160FEF7BB
:10311000A1FE0546306880073FF575AFFEF79AFEC1
:10312000401B0228F6D971E0A568052D56D0012D67
:1031300058D0306F20F001003067306F20F004006D
:1031400053E0012002B0BDE8F0810021C0F8801EEC
:10315000FEF780FE054600BF706F80077FF55DAF0C
:10316000FEF778FE401B0228F6D94FE00027C4F294
:10317000472700203866FEF76DFE022D05460DD16B
:103180003068800159D5FEF765FE401B02284FF0DC
:103190000300F5D902B0BDE8F08100BF30688001BE
:1031A0007FF56DAFFEF756FE401B02284FF003007F
:1031B000F4D9EFE70020C4F2472000210160FEF7B8
:1031C00049FE0546306880077FF524AFFEF742FED2
:1031D000401B02284FF00300F4D9DBE7306F40F0CA
:1031E00004003067306F40F001003067FEF732FEB8
:1031F000002D054641F2883713D000BF306F80079D
:1032000012D4FEF727FE401BB842F7D9032002B0C4
:10321000BDE8F081FEF71EFE401BB8424FF00300F0
:10322000B8D8306F8007F5D4B8F1000F3FF5F8AE8D
:10323000306C20F080503064F2E604F11C052FCD94
:10324000084340EA8210D9034FF6FF729143A1F57B
:10325000803140EA05600843706001203866FEF75F
:10326000F9FD0446306880013FF509AFFEF7F2FD35
:10327000001B02284FF00300F4D98BE770B538B17A
:103280000446406A30B10020206104F1140007E0D8
:10329000012070BD6068B0F5827F03D004F11C008E
:1032A000002101600026A66294F8510020B9204652
:1032B00084F8506000F03CF8022084F8510094E853
:1032C0000F0001F48271056802F4044225F0400504
:1032D0000560114403F400622369114403F0020203
:1032E0006369114403F00102A369E569114403F421
:1032F0000072114405F03802256A114405F080027D
:10330000A56A114305F4005211430160626A042169
:1033100001EA134102F0100211444160C16921F435
:103320000061C1610120666584F85100304670BDBE
:1033300080B586B043F600410068C4F20001002267
:1033400088420592CDE903220292019201D006B093
:1033500080BD43F630000092C4F20200036943F4DA
:1033600000430361036903F400430093009B009250
:10337000036843F004030360006800F00400009059
:1033800000984FF4E05001900220CDE902020320A2
:1033900004900620059001F5E63001A9FEF788FCAF
:1033A00006B080BD2DE9F04383B0044690F850008C
:1033B000012803D1022003B0BDE8F08301201E469E
:1033C00015460F4684F85000FEF744FD94F851105E
:1033D000814601296BD1002F4FF0010018BF002D4D
:1033E00000F0AF80002E00F0AC8094F85100002176
:1033F00004281CBF052084F851006165A563E68799
:10340000A6872763E6862068A68621646164016832
:10341000490603D4016841F0400101606168731EF0
:10342000E268B1FA81F1B3FA83F3DDF82880490943
:103430005B09B2F5006F41EA030147D131B137F8BA
:10344000021BC1602763E08E0138E086012608F187
:10345000010500BFE08E10B9E08F00287AD0206807
:10346000816889070CD5E18E51B1012E08D1216BFD
:10347000002631F8022BC2602163E18E0139E1861A
:103480008168C9070AD0E18F41B1C068A16B0126EC
:1034900021F8020BA163E08F0138E087FEF7DAFC28
:1034A000002DD7D0A0EB09004045D3D348E0606899
:1034B000B0F5827F08D104294FF0020041D1A16804
:1034C00000293FF488AF3CE002203AE039B1397876
:1034D0000173206B01302063E08E0138E086012605
:1034E00008F10105E08E08B9E08F98B32068816883
:1034F00089070DD5E18E59B1012E09D1216B002626
:1035000009780173206B01302063E08E0138E0867A
:1035100020688168C9070BD0E18F49B1C068A16BF1
:1035200001260870A06B0130A063E08F0138E087AE
:10353000FEF790FC002DD5D0A0EB09004045D1D37B
:103540000320012184F85110002184F8501003B0A9
:10355000BDE8F08340F21C00C2F20000006849F6AA
:103560008171C1F25E61A0FB0101480D4FF47A71D7
:10357000484302906068B0F5827F0FD120468021D9
:1035800042464B4600F0C0FF88B1606D40F020001D
:103590006065202060650120D3E700BF029830B14C
:1035A000029801380290206880680006F6D4A0686E
:1035B00000284FF00000C4D101902168CA68019230
:1035C000896801910199BCE7411E0020B0EB116FA1
:1035D0001CBF012070474EF21002CEF20002516073
:1035E0004EF62351CEF20001F0230B7007219060BC
:1035F00011607047704700007047000090F83C2051
:10360000012A04BF02207047B0B501F108053CCD86
:10361000D1E900CE23F47C5322F470521A432EF4E5
:10362000F0431A432CF4E0431A4324F4C0431A43F2
:103630002A43C96922F48042036811435964002176
:1036400080F83C10BDE8B0400846704790F83C2038
:10365000012A4FF0020255D010B5012380F83C300A
:1036600080F83D200268D2F804E0D2F808C00C6867
:103670002EF07003234341F2FF74C4F20004A2420F
:1036800053600DDC40F2FF73C4F200039A4215DC74
:10369000B2F1804F29D040F20043C4F2000322E08F
:1036A00040F2FF33C4F201039A4212DC41F60003F8
:1036B000C4F200039A4218D0002312E040F600033F
:1036C000C4F200039A4210D040F60043C4F2000353
:1036D00009E044F20003C4F201039A4205D040F22B
:1036E0000043C4F201039A4204D149682CF08003DC
:1036F000194391600121002280F83D1080F83C20A0
:10370000BDE810401046704741B1082909D004298E
:1037100014BF00F1450200F1430204E000F142024F
:1037200001E000F144021278012A1CBF0120704719
:10373000022241B1082909D0042914BF80F845208C
:1037400080F8432004E080F8422001E080F8442023
:10375000006801F01F010422036A02FA01F123EA62
:1037600001020262026A11430162416C41F2FF727E
:10377000C4F2000241F40041904241640DDC40F289
:10378000FF71C4F20001884215DCB0F1804F29D0EE
:1037900040F20041C4F2000122E040F2FF31C4F2E5
:1037A0000101884212DC41F60001C4F200018842A6
:1037B00018D0002112E040F60001C4F20001884256
:1037C00010D040F60041C4F2000109E044F20001CB
:1037D000C4F20101884205D040F20041C4F2010167
:1037E000884204D1816801F00701062903D00168ED
:1037F00041F001010160002070470000002804BF73
:103800000120704710B5044690F83D0028B900200B
:1038100084F83C00204600F01FF8022084F83D00A8
:103820002068211D01F070F8012084F8460084F81A
:103830003E0084F83F0084F8400084F8410084F89A
:10384000420084F8430084F8440084F8450084F87A
:103850003D00002010BD000000680021C4F20101FD
:10386000884218BF704780B582B00020019043F6AF
:103870004400C4F202000168002241F0010101602D
:103880000068002100F00100019001981920FEF766
:1038900065FB192002B0BDE88040FEF74FBB000079
:1038A00090F83D1001291CBF01207047022180F8CB
:1038B0003D10006841F2FF71C4F2000188420DDC46
:1038C00040F2FF71C4F20001884215DCB0F1804F74
:1038D00029D040F20041C4F2000122E040F2FF3161
:1038E000C4F20101884212DC41F60001C4F2000179
:1038F000884218D0002112E040F60001C4F2000115
:10390000884210D040F60041C4F2000109E044F2C0
:103910000001C4F20101884205D040F20041C4F226
:103920000101884206D1816801F00701062904BF20
:1039300000207047016841F00101016000207047DC
:1039400090F83C20012A4FF0020200F0C68080B5BA
:10395000012380F83C3080F83D20D0F800C04FF6BD
:103960007772DCF8083023EA0202CCF808200B68F2
:103970004F2B28DC1F2B44DD202B45D0302B43D090
:10398000402B40F0AC80D1F804E0C968DCF820306E
:10399000DCF8202022F00102CCF82020DCF81820EE
:1039A00022F0F00242EA011123F00A0242EA0E027A
:1039B000CCF81810CCF82020DCF8081041F04701B2
:1039C00021F030017EE06F2B26DDB3F5005F47D09C
:1039D000B3F5805F78D0702B40F08180D1E901E3AE
:1039E000C968DCF8082043EA0E0322F47F4243EA68
:1039F00001211143CCF80810DCF8081041F07701E0
:103A000060E00BB1102B6AD1DCF8081021F07001D6
:103A1000194341F0070155E0502B34D0602B5ED1A3
:103A2000D1F804E0C968DCF8203023F01003CCF8AA
:103A30002030DCF81830DCF8202023F4704322F02A
:103A4000A00243EA013142EA0E12CCF81810CCF879
:103A50002020DCF8081041F0670121F0100131E06E
:103A6000D1E901E3C968DCF8082043EA0E0322F437
:103A70007F4243EA01211143CCF80810DCF808101A
:103A800041F480411EE0D1F804E0C968DCF8203040
:103A9000DCF8202022F00102CCF82020DCF81820ED
:103AA00022F0F00242EA011123F00A0242EA0E0279
:103AB000CCF81810CCF82020DCF8081041F05701A1
:103AC00021F02001CCF808100022012180F83D10DF
:103AD000002180F83C10BDE880401046704701226C
:103AE000F3E700007047000010B504460068016964
:103AF000890744BFC1685FEA81713FD420680169CA
:103B0000490744BFC1685FEA417143D42068016935
:103B1000090744BFC1685FEA017148D420680169A0
:103B2000C90644BFC1685FEAC1614CD4206801691D
:103B3000C9071CBFC1685FEAC17151D12068016922
:103B4000090644BFC1685FEA016150D42068016979
:103B5000490644BFC1685FEA41614FD421680869E2
:103B6000800646BFC8685FEA806010BD6FF0200223
:103B700020460A61BDE81040FFF73EBD6FF002012C
:103B8000016101212177806980073ED02046FFF73F
:103B9000A9FF40E06FF004010161022121778069F3
:103BA00010F4407F3AD02046FFF79CFF3CE06FF0D6
:103BB0000801016104212177C069800737D02046C0
:103BC000FFF790FF39E06FF01001016108212177C4
:103BD000C06910F4407F33D02046FFF783FF35E003
:103BE0006FF001010161204600F006FAA6E76FF0D0
:103BF000800101612046FFF7FDFCA7E76FF040015F
:103C00000161204600F0FAF9A8E7204600F022F80A
:103C1000204600F05DF9002020776FE7204600F095
:103C200019F8204600F054F9002020776EE720466E
:103C300000F010F8204600F04BF9002020776DE7E7
:103C4000204600F007F8204600F042F900202077D7
:103C50006CE700007047000090F83C30012B04BF77
:103C6000022070474FEAB2020123032A80F83C3059
:103C700000F2F8802DE9F043DFE802F0023D7CBC61
:103C8000036840F200461A6A43F4806522F001029C
:103C90001A621C6A1A46D3F804C052F818EF8F68EB
:103CA00024F00204C4F20106B54244EA070405D137
:103CB000CF6824F00C0427F004073C430F68B5429A
:103CC00006D1D1E905582CF440762E4346EA080C7B
:103CD0002EF073063743C3F804C09F614F6809692B
:103CE0005F631C629F6947F008079F619F6927F027
:103CF00004079F61B0E0036840F200481A6A43F489
:103D0000806522F010021A621C6A1A46D3F804C0B9
:103D100052F818EF8F6824F02004C4F201084545DA
:103D200044EA071407D1CF686FF0400624F0C004BE
:103D300006EA07163443D1F80090454506D1D1E98B
:103D400005562CF440672E4347EA860C2EF4E647CE
:103D500047EA0927C3F804C09F614F6809699F6358
:103D60001C629F6947F400679F619F6927F4806721
:103D70009F6170E0036840F200481A6A43F480656E
:103D800022F480721A621C6A1A46D3F804C052F8F0
:103D90001CEF8F6824F40074C4F20108454544EA1E
:103DA000072408D1CF6840F2FF463F0224F4406464
:103DB00027EA06063443D1F80090454506D1D1E9FB
:103DC00005562CF440572E4347EA061C2EF0730785
:103DD00047EA0907C3F804C0DF614F680969DF6378
:103DE0001C62DF6947F00807DF61DF6927F004071D
:103DF000DF6131E0036840F200451A6A43F48067EE
:103E000022F480521A621A46D3F820C05C6852F835
:103E10001CEFD1F800808E68C4F20105AF4204D1D6
:103E20004D6924F4804444EA85142CF4005747EA91
:103E300006372EF4E64646EA08265C60DE614E68E8
:103E400009691E641F62DF6947F40067DF61DF698B
:103E500027F48067DF6109021368194300231160AA
:103E6000BDE8F043002180F83C1018467047000080
:103E7000002804BF0120704710B5044690F83D00AB
:103E800028B9002084F83C00204600F01FF80220EA
:103E900084F83D002068211D00F036FD012084F8E3
:103EA000460084F83E0084F83F0084F8400084F81F
:103EB000410084F8420084F8430084F8440084F808
:103EC000450084F83D00002010BD00007047000050
:103ED0007047000041B1082909D0042914BF00F13E
:103EE000410200F13F0204E000F13E0201E000F176
:103EF00040021278012A1CBF01207047022241B102
:103F0000082909D0042914BF80F8412080F83F20F7
:103F100004E080F83E2001E080F84020006801F0D5
:103F20001F010122036A02FA01F123EA010202627F
:103F3000026A0A4341F2FF71C4F200018842026240
:103F40000BDC40F2FF71C4F20001884213DCB0F1D7
:103F5000804F45D040F2004115E040F2FF32C4F2FC
:103F60000102904214DC41F60003C4F200039842BF
:103F700036D0002314E040F60001C4F2000188426C
:103F80002ED040F60041C4F20001884228D02CE037
:103F900044F20003C4F20103984221D040F20043EE
:103FA000C4F20103984220D1436C884243F4004399
:103FB0004364C6DD904207DC41F60001C4F2000113
:103FC00088420DD0002107E044F20001C4F2010153
:103FD000884205D040F20041C4F20101884204D178
:103FE000816801F00701062903D0016841F0010151
:103FF000016000207047000070470000704700001B
:10400000FEE7000010B58CB044F2EC500122002114
:10401000C2F2000042F2000CC0F60072C4F2010CC1
:104020004FF480330124C0E90A210522CDE90A11A9
:10403000CDE90811CDE90611CDE90411CDE9021150
:10404000CDE90011017680F82010C26180F83010AF
:10405000C0E900C3C0E90211C0E90444FDF78EFBCA
:10406000002818BFFCF780FE0D20CDE9080444F2BB
:10407000EC50C2F2000008A90A94FDF75DFA00288E
:1040800018BFFCF771FE0E2008900220099044F240
:10409000EC50C2F2000008A9FDF74EFA002818BF44
:1040A000FCF762FE0F2008900320099044F2EC50C8
:1040B000C2F2000008A9FDF73FFA002818BFFCF77C
:1040C00053FE0420099044F2EC500524C2F2000093
:1040D00008A90894FDF730FA002818BFFCF744FE41
:1040E0000620CDE9080444F2EC50C2F2000008A911
:1040F000FDF722FA002818BFFCF736FE0A200090D0
:104100000120019002904FF4801007904FF480300E
:10411000069000200321ADF81400039044F2EC5007
:104120000491C2F200006946FCF724FE002818BF83
:10413000FCF71AFE0B2000900220019044F2EC5094
:10414000C2F200006946FCF715FE002818BFFCF714
:104150000BFE0C2000900320019044F2EC50C2F2C0
:1041600000006946FCF706FE002818BFFCF7FCFDBE
:104170000CB010BD80B582B00020019043F6300035
:10418000C4F202000168002241F48001016000686D
:10419000002100F48000019001983820FDF7DEFE38
:1041A000382002B0BDE88040FDF7C8BE2DE9F041DF
:1041B00086B0002743F630000597CDE90377CDE9B7
:1041C00001770097C4F20200016840F2000841F054
:1041D000040101600168C4F2020801F004010091C9
:1041E00000990097016808F5006541F080010160C1
:1041F0000168012201F08001009100990097016897
:104200004FF4005641F0010101600168012401F002
:104210000101009100990097016841F002010160DD
:1042200000684FF4005100F002000090009828460A
:10423000FDF70AFE404601210022FDF705FECDE90B
:10424000016401AE28463146CDE90377FDF730FD24
:1042500040463146CDE90144CDE90377FDF728FD1D
:1042600006B0BDE8F0810000B0B544F6A43043F6D6
:104270000041C2F20000C4F200014FF48272002338
:104280004FF4006C4FF0010E4FF40074082580E8E5
:104290000E100A21C0E9043EC0E90645C0E9083312
:1042A000C0E90A31FEF7EAFF002808BFB0BDBDE84B
:1042B000B040FCF759BD00002DE9F0419CB040F240
:1042C000000844F6FC30C4F201080021C2F20000EC
:1042D00020224FF452531591CDE91311CDE911115C
:1042E000CDE90F11CDE90D11CDE90B11CDE9091182
:1042F000CDE90711CDE90511CDE90311CDE9011192
:10430000C0E90081C0E90223C0E904118161FFF71F
:1043100075FA002818BFFCF727FD4FF48050129063
:1043200044F6FC30C2F2000012A9FFF709FB002896
:1043300018BFFCF719FD44F6FC30C2F20000FFF78D
:1043400097FD002818BFFCF70FFD2020109044F6C1
:10435000FC300024C2F2000010A91194FFF776F996
:10436000002818BFFCF700FD702009904FF4FA7088
:10437000CDE90A0444F6FC30C2F2000009A900228B
:10438000CDE90C44CDE90E44FFF766FC002818BFC8
:10439000FCF7EAFC44F6FC30C2F2000009A9042252
:1043A000FFF75AFC002818BFFCF7DEFC44F6FC308F
:1043B000C2F2000009A90822FFF74EFC002818BF2E
:1043C000FCF7D2FC0026CA2044F6FC34CDE90406F2
:1043D0004FF40050C2F20004069001A92046CDE936
:1043E000016603960896FFF709F9002818BFFCF745
:1043F000BBFC20681B964045CDE9196618961796B8
:1044000002D01CB0BDE8F081002643F630001696BD
:10441000C4F20200016817AC41F0020101600168BA
:10442000022701F0020116911699169601680125DE
:1044300041F0010101600068214600F00100169082
:1044400016984FF46040179008F58230CDE9187641
:104450001A961B95FDF72CFC4FF4E060CDE9170789
:1044600008F580302146CDE919661B95FDF720FC43
:104470001CB0BDE8F081000080B544F2103040F27D
:104480000001C2F20000C2F20001002200F08EFE24
:10449000002818BFFCF768FC44F2103040F22001FD
:1044A000C2F20000C2F2000101F0E4F8002818BFD7
:1044B000FCF75AFC44F2103040F2BC01C2F200009A
:1044C000C2F2000100F05CFC002818BFFCF74CFCB5
:1044D00044F21030C2F2000001F0F6F8002808BFE4
:1044E00080BDBDE88040FCF73FBC0000FEE7000057
:1044F000FEF70CFDFEE7000044F29860C2F20000F7
:10450000FDF7D0BE704700002DE9F04381B01E4694
:1045100090460D468146FDF79DFC301A00EB0807DA
:10452000FDF798FC40F21C01C2F200010968C1F3DA
:10453000CB3179430091D9F8001089682940A9420C
:1045400019D1064608F1010406E000BFD9F80000C1
:1045500080682840A8420ED1002CF7D0FDF77AFCE5
:10456000801BB8420BD200980099002808BF07466C
:10457000481E0090EAE7002001B0BDE8F083D9E9C9
:1045800000014268B1F5827F22F0E00242600BD167
:10459000D9F80810B1F5004F02D0B1F5806F03D102
:1045A000016821F040010160D9F82810B1F5005FE1
:1045B00007D1016821F400510160016841F4005104
:1045C0000160012089F85100002089F85000032083
:1045D00001B0BDE8F083000070470000F5EE400A2E
:1045E000F1EE10FA12DAB5EE400AF1EE10FA20DA26
:1045F0009FED8A1A052120EE811A31EE001AB5EEE0
:10460000401AF1EE10FAB8BF04212DE0B5EE400AD1
:10461000F1EE10FA1BDA9FED821A032120EE811AC7
:1046200031EE001AB5EE401AF1EE10FAC8BF0221C1
:104630001AE09FED7B1A052120EE811A31EE001A57
:10464000B5EE401AF1EE10FAC8BF06210CE09FED5E
:10465000731A022120EE811A31EE001AB5EE401ACB
:10466000F1EE10FAC8BF0121013905291DD8DFE894
:1046700001F0031D344D667D9FED681A9FED6A2A97
:1046800020EE811A31EE003AB7EE000A20EE821ACF
:1046900030EE430A30EE410AB6EE002A20EE020A5E
:1046A00031EE001A33EE012A78E077E09FED5C1AD4
:1046B000B6EE003A20EE811A31EE002A31EE401AB1
:1046C000B7EE000A30EE420A30EE410A20EE030A4D
:1046D00032EE002A31EE021A60E09FED502A9FED83
:1046E000521A20EE822A20EE811A32EE400AB7EEEC
:1046F000002A32EE412A32EE402AB6EE003A22EE8D
:10470000032A30EE020A31EE001A47E09FED441A08
:104710009FED442A20EE811A31EE400AB7EE001ACE
:1047200020EE823A31EE401A31EE431AB6EE002AFC
:1047300021EE022A30EE021A33EE010A2EE09FED3E
:10474000371AB6EE002A20EE811A31EE403A31EEE9
:10475000000AB7EE001A31EE431A31EE401A21EE8C
:10476000021A30EE012A33EE020A17E09FED2D1AED
:104770009FED2B2A20EE813A20EE821A31EE002A9C
:10478000B7EE000A30EE430A30EE420AB6EE001AE7
:1047900020EE011A33EE010A32EE002AB5EE402A6D
:1047A000B7EE003AF1EE10FA4FF00002B4EE432AF1
:1047B00080ED002A80ED011A80ED020AA8BF0122D7
:1047C000F1EE10FA4FF00003B5EE401A4FF0000181
:1047D000D8BF0123F1EE10FAA8BF01211140B4EEB9
:1047E000431A00221940F1EE10FAD8BF01221140FD
:1047F000B5EE400A00224FF0000CF1EE10FAA8BF0F
:1048000001221140B4EE430AF1EE10FAD8BF4FF086
:10481000010C01EA0C010173704700BF3ACD13BFD0
:104820003ACD133F3ACD93BF3ACD933FFDF718BB36
:1048300070B592B006AC20463021FBF7C3FD0025D1
:1048400043F640000595CDE90355CDE901550095A6
:10485000C4F202000168022641F080510160006844
:1048600000F080500090009847F200000095C4F2DC
:104870000000016841F480410160006800F480405C
:1048800000900098012006904FF4803007904FF47C
:1048900080000D9004200E90A820CDE90F0607207F
:1048A000119020460C96FEF73FFB20B1EFF31080ED
:1048B00072B600BFFEE70F20CDE901064FF4A0500D
:1048C00004904FF48050059001A805210395FEF750
:1048D0002BFA20B1EFF3108072B600BFFEE7FEF7AF
:1048E000D3FA12B070BD00004EF68850CEF2000030
:1048F000016841F4700101607047000044F6FC302B
:10490000C2F20000FFF7F0B810B540F6FF3E0368B2
:10491000C4F2000E40F2004C7045C4F2010C0FDCF2
:10492000B0F1804F19D040F20042C4F20002904230
:1049300013D040F60002C4F2000290420DD010E005
:1049400040F60042C4F20002904206D0604504D016
:104950000022C4F20102904203D14A6823F070039E
:10496000134341F6FF72C4F2000290420DDC704521
:104970001FDCB0F1804F41D040F20042C4F200028F
:1049800090423BD040F6000221E043F6FF72C4F2B1
:104990000102904220DC42F20002C4F20002904286
:1049A0002CD00022C4F20102904227D0604525D0CD
:1049B00028E040F60042C4F2000290421ED041F6C8
:1049C0000002C4F20002904218D041F60042C4F244
:1049D0000002904212D015E044F20002C4F201023B
:1049E00090420BD044F60002C4F20102904205D07E
:1049F00044F20042C4F20102904203D1CA6823F497
:104A00004073134323F080024B69D1F800E08C68B7
:104A10001A430260C46240F48062C0F828E0624534
:104A200004BF096901630121416110BD70B5D0F86F
:104A3000D42200EB8202D2F8C03243B301F00F0E51
:104A40008C460EEB8E0100EB810151F8184F5CB1E2
:104A5000D0F8C8620EEBCE0506EB8506B66CB4FB4B
:104A6000F6F505FB1646A6B10024C3F81442D2F8A9
:104A7000C402D0F810E0BEF1000F06D0D3F808024F
:104A800003F504716246F0470024204670BD032000
:104A900070BD00240C6061460022002300F0CCFDB4
:104AA000204670BDB0B50446D0F8D40204EB8000B7
:104AB000D0F8C05295B1204600F05EFCD4F8D41274
:104AC000C5F80C0204EB8101D1F8C412D5F8040238
:104AD000CA6805F5037190470020B0BD0320B0BD42
:104AE00070B58121044600F089FB00252046012194
:104AF000258700F083FB20468221A4F8785100F03E
:104B00007DFBD4F8D402E56404EB8000D0F8C01239
:104B100089B1D0F8C40240688047D4F8D40204F5C3
:104B2000307656F8200001F04FF8D4F8D40246F859
:104B30002050C4F8BC52002070BD000010B5D0F861
:104B4000D41200EB8100D0F8C04284B1D0F8C41276
:104B500059B194F80002FF2807D08B6894F801221D
:104B600021469847FF2084F80002002010BD032052
:104B700010BD0000014640F29C000A22C2F2000073
:104B80000A807047F0B581B040F25807C2F20007C2
:104B900004463846822100F0B3FA06463846012121
:104BA00000F0AEFA05463846812100F0A9FA002E41
:104BB0001CBF1021B171002D1CBF4021A98000280D
:104BC0001CBF40218180432140F25800C2F2000006
:104BD000218001B0F0BD0000F0B581B040F258076F
:104BE000C2F2000704463846822100F089FA0646E0
:104BF0003846012100F084FA05463846812100F04C
:104C00007FFA002E1CBF1021B171002D1CBF4FF484
:104C10000071A98000281CBF4FF4007181804321DE
:104C200040F25800C2F20000218001B0F0BD000047
:104C3000F0B581B040F25807C2F20007044638468A
:104C4000822100F05DFA06463846012100F058FA4C
:104C500005463846812100F053FA002E1CBF102172
:104C6000B171002D1CBF4021A98000281CBF40212C
:104C70008180432140F25800C2F20000218001B03F
:104C8000F0BD00002DE9F04104464FF4077000F03C
:104C90009DFF002850D04FF407710546FBF792FBAB
:104CA000D4F8D402402704EB8000C0F8C052207C26
:104CB000C4F8BC52002808BF4FF400772046812179
:104CC00002223B46022600F0D3FB4FF001082046AB
:104CD000012102223B46A4F8388000F0C9FB1020D5
:104CE000A4F84E002046822103220823A4F87881EC
:104CF00000F0BEFBD4F8D4020027C5F8047204EB20
:104D00008000D0F8C402A4F84C8000688047C5F841
:104D10001472C5F81872D5F8042252B1207C012112
:104D20000028204614BF40234FF4007300F0B4FB6A
:104D300000263046BDE8F081D4F8D402002104EB0F
:104D40008000C0F8C0120220BDE8F081D0F8D41273
:104D500000EB8101D1F8C012002904BF0320704785
:104D600080B590F810C0D1F8042240230121BCF195
:104D7000000F08BF4FF4007300F08EFB002080BDD1
:104D800000290FBF0320D0F8D42200EB8200C0F826
:104D9000C41218BF00207047D0F8D42200EB820064
:104DA000D0F8C00200280EBF0320C0F80412002073
:104DB00070470000D0F8D43200EB8300D0F8C00276
:104DC00000280FBF0320C0F80812C0F810220020EE
:104DD0007047000070B582B00446D0F8D4020D468A
:104DE00004EB8000D0F8C0620021002E8DF807107F
:104DF000ADF8041057D0297811F0600215D0202AA0
:104E00004DD1EA882AB349B2B1F1FF3F2ADD687873
:104E1000314686F800022046402A28BF402286F804
:104E2000012200F091F800263EE068780B2836D881
:104E30000026DFE800F006393434343434343434B6
:104E4000243094F89C02032829D101A9204602228B
:104E50001DE0D0F8C4022946836868780022002645
:104E6000984721E0D0F8C4023146836868789847B3
:104E7000EA882046072A28BF0722314607E094F82F
:104E80009C0203280BD10DF107012046012200F0FE
:104E900075F8002608E094F89C02032804D0204608
:104EA000294600F045F80326304602B070BD0000E8
:104EB000D0F8D41200EB8101D1F8C022002A04BF3F
:104EC00003207047D2F8141200294FF0010101D0DD
:104ED0000846704780B5C2F81412D2F81032D2F8E2
:104EE00008228121C36200F0A7FB0021BDE88040B9
:104EF0000846704780B5D0F8B8225268904700281D
:104F000018BF032080BD00000020704700207047BC
:104F100080B513460A46002100F0BEFA002080BD8D
:104F200080B513460A46002100F086FB002080BDB4
:104F300010B58021044600F051FB20460021BDE859
:104F4000104000F04BBB000080B513460A46032119
:104F5000C0F894120021C0E9563300F09DFA0020F9
:104F600080BD000080B50521C0F894120021002208
:104F7000002300F091FA002080BD000080B51346A8
:104F80000A460221C0F894120021C0E9063300F05D
:104F900053FB002080BD000080B50421C0F89412AE
:104FA00000210022002300F047FB002080BD00000C
:104FB00010B542F63454C2F200040A4602A021465B
:104FC00000F0BAF8204610BD43444320436F6E669C
:104FD0006967000040F2A8001222C2F200000A80B5
:104FE0007047000010B542F63454C2F200040A467D
:104FF00002A0214600F0A0F8204610BD4344432003
:10500000496E7465726661636500000040F2D0000D
:105010000422C2F200000A807047000010B542F678
:105020003454C2F200040A4602A0214600F084F87B
:10503000204610BD53544D6963726F656C6563748F
:10504000726F6E696373000010B542F63454C2F299
:1050500000040A4602A0214600F06EF8204610BD6A
:1050600053544D3332205669727475616C20436F0E
:105070006D506F727400000070B547F61020C1F6D5
:10508000FF70026883684FF01A0CD218A1F800C0B4
:1050900031D0406840F2D40C6FF00101C2F2000C34
:1050A0004FF0370E002300BF0CEB01050EEB12761C
:1050B000B2F1204F01F102014FEA127438BF04F13E
:1050C000300612010E292E716B71EDD10CF1100119
:1050D00004224FF0370C00230CEB1075B0F1204F79
:1050E0004FEA107638BF06F1300501F8025F000183
:1050F000013A4B70F0D140F2D400C2F2000070BD12
:10510000B0F802C003789C459CBF0020704780B572
:1051100008E000BF82788A4208BF80BD73449AB21B
:10512000624506D290F800E070444278052AF1D03A
:10513000F4E7002080BD0000002808BF704780B55C
:1051400003786BB1431E4FF0000C00BF93F802E0F0
:105150000CF1010CBEF1000F03F10103F6D101E0E7
:105160004FF0000C5FFA8CFC022303EB4C0313801E
:1051700003220B704A7090F800E0BEF1000F12D0CD
:10518000013802234FF0000CDAB201F802E042F0DD
:10519000010201F802C090F802E00233BEF1000FF4
:1051A00000F10100F0D1BDE880407047002804BF45
:1051B000032070470023C0F8B832C0F8C432002979
:1051C000C0F8D03218BFC0F8B412012180F89C1288
:1051D000027000F0D5B8000080B5D0F8C802FCF726
:1051E0006DFF40F20032C100C0F2013222FA01F13B
:1051F000032888BF0321C8B280BD000080B5D0F865
:10520000C802FCF733FF40F20032C100C0F20132A5
:1052100022FA01F1032888BF0321C8B280BD000033
:10522000B0B5044689B194F89C0203284FD1D4F854
:10523000B8024269002A4AD00020C4F8D4022046AD
:105240009047002808BF0020B0BDD4F8940202287F
:1052500036D1D4E9071081420DD90B1A20461146E8
:105260001A46E361FFF75CFE20460021002200237E
:1052700000F012F924E00FD1A16981420CD3D4F8D7
:105280009802814208D22046002100220025FFF723
:1052900047FEC4F89852E7E794F89C02032808D127
:1052A000D4F8B802C16821B10020C4F8D402204665
:1052B00088472046802100F091F92046FFF752FEF2
:1052C00094F8A00200281CBF002084F8A00200204F
:1052D000B0BD000010B5044669B194F89C020328E3
:1052E0001ED1D4F8B80282690020D2B1C4F8D40229
:1052F0002046904715E0D4F89402032825D1D4E93C
:105300005703984211D9C01AC4F85C01984238BFBB
:105310000346204611461A46FFF7FAFD002010BD4D
:105320000020002808BF002010BD94F89C0203282C
:1053300008D1D4F8B802016921B10020C4F8D40220
:10534000204688472046FFF727FE002010BD0000BA
:1053500000207047012180F89C12D0F8B812002973
:1053600004BF0020704780B54A6801799047002843
:1053700018BF032080BD0000D0F8C802FCF7D2BEE1
:10538000017809B10020704710B544F29861C2F26B
:105390000001C1F80805C0F8C8124FF0A04004226F
:1053A000C1E9000202200022C1E90302C1E90602AC
:1053B0000846C1E90822C1E90B22FDF75FFB00287E
:1053C00018BFFBF7D1FC44F29864C2F200042046F7
:1053D0008021FCF701FE204600214022FCF700FE60
:1053E000204601218022FCF7FBFDBDE81040002093
:1053F000704700004AB2D0F8C80201F07F0101EB0B
:10540000C10100EB810000F27E21002A48BF00F1BB
:105410003E01087870470000D0F8D42200EB8202E9
:10542000D2F8B822002A04BF0320704790F89C32BB
:10543000032B05D1126A1AB180B59047002080BDB8
:1054400000207047D0F8D42200EB8202D2F8B822B4
:10545000002A04BF0320704790F89C32032B05D12B
:10546000526A1AB180B59047002080BD0020704775
:1054700080B59446D0F8C8021A466346FCF75CFE35
:1054800040F20032C100C0F2013222FA01F10328D9
:1054900088BF0321C8B280BD80B5D0F8C802FCF730
:1054A0007FFE40F20032C100C0F2013222FA01F167
:1054B000032888BF0321C8B280BD0000F0B581B0C9
:1054C0000126002580F89C62C0F89452044645608D
:1054D000D0F8B802C4F8A45284F8A05240B142688F
:1054E00032B12046002190470546002818BF032509
:1054F00020460021002240234027FFF7B9FF204625
:10550000802100224023A4F86461C4F86071FFF791
:10551000AFFFA6842846276201B0F0BD90F89C1228
:10552000042904BF90F89D1280F89C120020704757
:1055300090F89C12032908D1D0F8B81229B1C96992
:1055400019B180B58847BDE8804000207047000051
:10555000024600201174704780B5D0F8C802FDF7EC
:105560008BFB40F20032C100C0F2013222FA01F19D
:10557000032888BF0321C8B280BD0000B0B500F287
:10558000AA250446284600F069F80120C4F89402D0
:1055900094F8AA02B4F8B02200F01F010229C4F85E
:1055A000982208D001290CD089B920462946BDE8A7
:1055B000B04000F08BB820462946BDE8B04000F06E
:1055C00021BA20462946BDE8B04000F0C1BA00F03B
:1055D00080012046BDE8B040AFF3008080B5D0F830
:1055E000C802FCF703FE40F20032C100C0F20132F3
:1055F00022FA01F1032888BF0321C8B280BD000050
:1056000080B5D0F8C802FDF753FB40F20032C1006C
:10561000C0F2013222FA01F1032888BF0321C8B287
:1056200080BD0000014690F89C02042281F89D0292
:10563000002081F89C22704780B5D0F8C802FCF7A2
:105640000FFE40F20032C100C0F2013222FA01F135
:10565000032888BF0321C8B280BD00000A78027009
:105660004A7842704A8842808A888280C988C1808C
:105670007047000010B582B004460020ADF8060067
:10568000B1B1D4F8D42204F52E70C4F8B81250F891
:105690002200C16A21B10DF106008847C4F8D0028A
:1056A000D4F8D8020130C4F8D802002002B010BDEE
:1056B000032002B010BD0000D0F8B822002A04BFB9
:1056C0000020704712681047FFF79ABF70B582B08C
:1056D0000D460978044611F0600111D0402902D02E
:1056E000202940F0CD80D4F8D402294604EB800074
:1056F000D0F8B8028268204602B0BDE8704010477A
:105700006878092800F2BC80DFE800F0051BBA2C9D
:10571000BA5D7DBA374A94F89C020138022800F23B
:10572000AF80E888022840F0AB80D4F8A4020322BE
:10573000002808BF0122214641F80C2F20460222F2
:105740004CE194F89C020138022800F299806888A4
:105750000025012840F09D80C4F8A4522046FFF7A0
:105760001BFC96E06888022800F07C80012840F04D
:1057700087800120C4F8A40277E0E888012840F07F
:105780007F8094F89C02411E022980F073800025DE
:10579000214641F8085F20460122FFF7EFFB78E041
:1057A000688842F63055C2F2000510F0FE0F2870EE
:1057B0003ED020468021FFF711FF20460021FFF751
:1057C0000DFF032565E0A888002859D1E888002846
:1057D00056D168887F2853D894F89C1203294FD05B
:1057E00000F07F052046294684F89E52FFF7B4FE5C
:1057F0002046FFF7D1FB002D14BF0220012084F8C2
:105800009C02002545E068884FF0FF3101EB102134
:1058100000220629ADF8062000F2C980DFE801F079
:1058200004493CC7C7566000D4F8B4020268B7E028
:1058300094F89C22C1B2032A60D0022A40F07F80F3
:1058400099B120466160FFF737FF0546002800F058
:105850008C8020468021FFF7C1FE20460021FFF703
:10586000BDFE68E0687984F8A0022046FFF794FB4B
:1058700000250EE0032803D1211D20460122ADE0C2
:1058800020468021FFF7AAFE204600210025FFF7D1
:10589000A5FE284602B070BDC0B2052800F2878080
:1058A000DFE800F0036A6E72767AD4F8B4024268D8
:1058B00075E0217CD4F8B80200290CBF816AC16A66
:1058C0000DF1060088470646022014E0207C0028DF
:1058D0006DD1D4F8B802416B0DF10600884763E042
:1058E000207C002863D1D4F8B802016B0DF10600CA
:1058F0008847064607207070012062E069B360683F
:105900008842B2D0C1B22046FFF7F4FA2978204687
:105910006160FFF7D1FE054600283FF41FAF204627
:105920008021FFF75BFE20460021FFF757FE21791B
:105930002046FFF7DFFA022084F89C02A9E7204600
:105940008021FFF74BFE20460021FFF747FE297814
:105950002046FFF7CFFA03259BE7022084F89C023C
:1059600020466160FFF7C6FA7FE72046FFF714FB89
:10597000032084F89C028CE7D4F8B40282680EE01D
:10598000D4F8B402C2680AE0D4F8B402026906E0AE
:10599000D4F8B402426902E0D4F8B402826932B1A8
:1059A000207C0DF1060190470646012009E02046C3
:1059B0008021FFF713FE204600210026FFF70EFE90
:1059C000002090B1EA886AB1BDF8060078B1904233
:1059D00038BF0246ADF8062020463146FFF7CEFA22
:1059E000002556E72046FFF7D7FA002551E7204665
:1059F0008021FFF7F3FD20460021FFF7EFFD002592
:105A000047E7000070B50E460978357911F060015E
:105A100004460AD0402901D0202977D120462946C2
:105A2000FFF772FAD8B1002070BD707820B301285A
:105A30003BD003286AD194F89C02032839D170889E
:105A400040B915F07F0005D0F08818B920462946E6
:105A5000FFF7C4FD2046FFF79FFA002070BDD4F881
:105A6000B80282680020002AC4F8D402DBD02046A5
:105A70003146BDE87040104794F89C02032823D0BB
:105A8000022808BF5FEA456040D105F07F0000EBC7
:105A9000800004EB800000F114012A0658BF00F5D5
:105AA000AA710020086020464CE094F89C0203286C
:105AB00036D002282AD1680628D020462946FFF78A
:105AC0008DFD2046802127E005F00F0000EB8000CF
:105AD000802D04EB80002CBF808CB0F86401A8B14D
